:020000040800F2
:1000000000500020FD150008851500088715000820
:10001000891500088B1500088D15000800000000E8
:100020000000000000000000000000008F15000824
:1000300091150008000000009315000895150008B0
:100040004516000845160008451600084516000824
:100050004516000845160008451600084516000814
:100060004516000845160008451600084516000804
:1000700045160008451600084516000845160008F4
:1000800045160008451600084516000845160008E4
:10009000A115000845160008451600084516000879
:1000A00045160008451600084516000845160008C4
:1000B00045160008451600084516000845160008B4
:1000C00045160008451600084516000845160008A4
:1000D0004516000845160008451600084516000894
:1000E00045160008451600084516000800000000E7
:1000F0000000000000000000000000000000000000
:0C01000000000000000000005FF808F1A3
:10010C0010B5054C237833B9044B13B10448AFF345
:10011C0000800123237010BD0400002000000000AB
:10012C009016000808B5034B1BB103490348AFF305
:10013C00008008BD00000000080000209016000898
:10014C0010B50446074B1868074BA3FB0030800919
:10015C0000F028FC002221464FF0FF3000F0E2FBBB
:10016C00002010BD00000020D34D621008B5074AD6
:10017C00136843F010031360032000F0C1FB002050
:10018C00FFF7DEFF01F070F9002008BD00200240EF
:10019C00024A136801331360704700BF64000020EB
:1001AC00014B1868704700BF6400002030B583B065
:1001BC000190FFF7F5FF0546019CB4F1FF3F00D01D
:1001CC000134FFF7EDFF401BA042FAD303B030BD62
:1001DC00F0B44B6901229A400468D4F8003223F43D
:1001EC007C534D6A43EA052343F00103C4F8003203
:1001FC000568D5F81C42D3431C40C5F81C42CC6999
:10020C00C4B90568D5F80C421C40C5F80C42CF683F
:10021C008D8806684C6945EA0745483446F83450E1
:10022C008F680D8804684E6945EA0745483604EB2B
:10023C00C6046560CC69012C1ED08C69002C35D1AC
:10024C000568D5F804421C40C5F804420C69002C22
:10025C0033D10468D4F814522B40C4F814320B6A0E
:10026C00012B31D00268D2F8003223F00103C2F81E
:10027C0000320020F0BC70470568D5F80C421443DE
:10028C00C5F80C420F688D8806684C6945EA07452D
:10029C00483446F834508F688D8904684E6945EAB5
:1002AC000745483604EBC6046560C6E70568D5F813
:1002BC0004421443C5F80442C8E70468D4F8143265
:1002CC001343C4F81432CAE70168D1F81C321A433C
:1002DC00C1F81C22C6E7002800F0968038B5044609
:1002EC0090F83C3003B3022384F83C302268136846
:1002FC0023F0020313602268136843F001031360B8
:10030C00FFF74EFF054623685A6812F0010F10D113
:10031C00FFF746FF401B0A28F5D9032084F83C0060
:10032C00002384F83D3038BD80F83D3001F0EEF804
:10033C00D9E75A6812F0010F5BD0A269012A43D0A9
:10034C000022E169012941D022F04002216A0129F1
:10035C003FD022F02002616A01293DD022F0100228
:10036C00A16A01293BD022F00802E16A012939D0A7
:10037C0022F00402196821F0FC010A431A60A368F8
:10038C00E268134322691343626913436268013ABA
:10039C0021681343CB612268136823F001031360B7
:1003AC00FFF7FEFE054623685A6812F0010F1CD0B9
:1003BC00FFF7F6FE401B0A28F5D9032084F83C0011
:1003CC00002384F83D30AEE78022BAE742F04002C9
:1003DC00BCE742F02002BEE742F01002C0E742F058
:1003EC000802C2E742F00402C4E75B6813F0010F95
:1003FC0004D0042384F83C30012094E700202064CE
:10040C00012384F83C308EE7012070470A4699B9E5
:10041C0090F83C30DBB2222B7CD090F83C30DBB235
:10042C00422B79D090F83C30DBB2622B76D090F82E
:10043C003C30DBB2722B73D0012A16D090F83D30D1
:10044C00012B75D010B4012380F83D30002A41D126
:10045C0090F83C30DBB2322B34D0522B36D0122BEE
:10046C0019D0222380F83C3018E090F83C30DBB2F5
:10047C00322B57D090F83C30DBB2522B54D090F842
:10048C003C30DBB2622B51D090F83C30DBB2722B9B
:10049C00D4D102207047422380F83C300021016403
:1004AC000468636943F40F4343F00103636180F80C
:1004BC003D1042B30268536943F05003536100206E
:1004CC0010BC7047622380F83C30E7E7722380F859
:1004DC003C30E3E790F83C30DBB2222B0BD0422BC4
:1004EC000DD0122B03D0322380F83C30D6E75223A8
:1004FC0080F83C30D2E7622380F83C30CEE77223A0
:10050C0080F83C30CAE70268536943F00A03536130
:10051C000846D5E70220704702207047022070473A
:10052C00022070470220704702207047022070475B
:10053C0002207047704708B50268536923F0010325
:10054C00536190F83C30DBB2122B0CD090F83C305D
:10055C00DBB2522B14D0722B16D0422B09D00123B4
:10056C0080F83C3008E00268536923F40F43536170
:10057C00ECE7222380F83C30FFF7DCFF002008BDBD
:10058C00322380F83C30F7E7622380F83C30F3E705
:10059C0010B50C46002978D1436B016804F11B029D
:1005AC0012018A5802F004029A60002A6FD1016885
:1005BC0004F11B0212018A58520D1A60016804F1F1
:1005CC001B021201895801F00201D9600168114423
:1005DC00496801F00F0119611C6201680A445268F4
:1005EC00C2F30722DA61016822011144D1F8B81173
:1005FC00197501681144D1F8B811090A59750168C7
:10060C001144D1F8B811090C997501681144D1F84D
:10061C00B811090ED97501681144D1F8BC111976BD
:10062C0001681144D1F8BC11090A597601681144CA
:10063C00D1F8BC11090C997601680A44D2F8BC2196
:10064C00120EDA765CBB03682022DA60026853690A
:10065C0023F00A03536190F83C30DBB2222B01D01B
:10066C00322B04D10268536923F40F43536174BBDA
:10067C0090F83C30DBB2622B21D0722B23D0422B72
:10068C0016D0012380F83C3015E0836B85E70168B8
:10069C0004F11B0212018A58D2085A608EE70368D3
:1006AC0020221A610268536923F050035361D2E788
:1006BC00122380F83C3000F0A5FE002010BD322340
:1006CC0080F83C30F7E7522380F83C30F3E790F8A1
:1006DC003C30DBB2622B0BD0722B0DD0522B03D0E3
:1006EC00012380F83C30E6E7122380F83C30E2E747
:1006FC00222380F83C30DEE7422380F83C30DAE7F6
:10070C007047000070B504460268D168536911F057
:10071C00100F09D003F00803002B00F0A680102363
:10072C00D3604FF4007500E000252268116953690D
:10073C0003F0400311F0100F04D01BB145F4806599
:10074C001023136123685A6912F0010F28D09E6898
:10075C009968674A0A40996821F06F4121F47E013B
:10076C00090C09046348B04305D06148824202D0A9
:10077C00614A914214D199689A6802F400729B689C
:10078C0003F0010311F0020F02D10AB9002B6ED055
:10079C002046FFF7D0FE22689168584B0B439360BC
:1007AC002368DA685B6903F0020312F0030F01D0CF
:1007BC00002B5FD123681A695B6903F0100312F0F8
:1007CC00030F01D0002B5AD1236C2B4323642368D5
:1007DC0098695A6902F48072596901F4004110F069
:1007EC00010F05D022B119B1226C42F00102226432
:1007FC0098695A6902F40072596901F4004110F0C9
:10080C00020F05D022B119B1226C42F0020222640F
:10081C0098695A6902F48062596901F4004110F038
:10082C00040F05D022B119B1226C42F004022264EB
:10083C0098695A6902F40062596901F4004110F098
:10084C00700F32D08AB381B39A6902F07002302AE9
:10085C002ED019D9502A30D0602A33D0402A20D13A
:10086C00226C42F0400222641BE000255DE745F457
:10087C00006590E700212046FFF78AFE9AE70121E8
:10088C002046FFF785FE9FE7102A06D0202A08D1C4
:10089C00226C42F01002226403E0226C42F0080247
:1008AC0022649A6922F070029A61236C7BB970BD44
:1008BC00226C42F020022264F3E7226C42F08002A8
:1008CC002264EEE7226C42F480722264E9E723682A
:1008DC0004225A60012384F83C302268536923F4C3
:1008EC000F4323F05B0353612046FFF709FFDEE75C
:1008FC0000010008010000040000011009050100BE
:10090C00074AD36823F4E0631B041B0C000200F4B9
:10091C00E060184340F0BF6040F40030D060704796
:10092C0000ED00E030B4174BDB68C3F30223C3F1D6
:10093C000704042C28BF04241D1D062D18D9033BC5
:10094C004FF0FF3505FA04F421EA0401994005FA49
:10095C0003F322EA0303194300280BDB0901C9B294
:10096C0000F1604000F5614080F8001330BC704726
:10097C000023E5E700F00F000901C9B2024B19543E
:10098C00F4E700BF00ED00E014ED00E000F01F0202
:10099C00400901239340024A42F82030704700BFBF
:1009AC0000E100E00138B0F1807F0AD2064B5860BC
:1009BC00064AF02182F823100020986007221A6062
:1009CC0070470120704700BF10E000E000ED00E030
:1009DC00042805D0054A136823F0040313607047FC
:1009EC00024A136843F004031360704710E000E000
:1009FC00704708B5FFF7FCFF08BD0000F0B482B0EB
:100A0C0000263546A1E0002C59D0012C00D1CE682F
:100A1C00FF2B68D88446FF2B68D8AC00DCF800208C
:100A2C000F27A74022EA070206FA04F42243CCF867
:100A3C0000204A6812F0805F00F086805E4A94695C
:100A4C0044F001049461926902F001020192019A4E
:100A5C00AC08A71C594A52F8272005F00307BF0021
:100A6C004FF00F0C0CFA07FC22EA0C0C544A904283
:100A7C0042D002F5806290427FD002F580629042B3
:100A8C007DD002F58062904234D0042235E04D4F87
:100A9C00BC4214D00BD94C4FBC4210D007F5803758
:100AAC00BC420CD0A7F58017BC42B1D107E0A7F52A
:100ABC008017BC4203D007F58037BC42A8D18C68A4
:100ACC007CB1012C08D042610826A1E7CE6808361B
:100ADC009EE7CE680C369BE70261082698E7002655
:100AEC0096E7042694E700F1040C94E7A5F10804BA
:100AFC00A40093E7032200E00022BA4042EA0C0271
:100B0C0002342E4F47F824204A6812F4803F38D024
:100B1C002E4C22681A4322604A6812F4003F36D0E9
:100B2C002A4C62681A4362604A6812F4801F34D0FF
:100B3C00264CA2681A43A2604A6812F4001F32D0F5
:100B4C00224CE2681343E36001350F2D31D80122AA
:100B5C00AA400B6813409A42F6D14C68122CB8D0BC
:100B6C0095D8022CB2D07FF64EAF032CB7D0112CF7
:100B7C007FF44EAFCE6804364AE70122BDE702226D
:100B8C00BBE7124C226822EA03022260C4E70F4C36
:100B9C00626822EA03026260C6E70C4CA26822EA91
:100BAC000302A260C8E7094CE26822EA0303E3608F
:100BBC00CAE702B0F0BC70470010024000000140D0
:100BCC000008014000002110000031100004014019
:100BDC0012B909040161704701617047C36859403B
:100BEC00C160704782B0084B1B68084AA2FB032304
:100BFC005B0A00FB03F0019000BF019B5A1E01929F
:100C0C00002BF9D102B0704700000020D34D6210C8
:100C1C0070B582B00446036813F0010F2CD0AB4BB7
:100C2C005B6803F00C03042B1DD0A84B5B6803F02E
:100C3C000C03082B12D06368B3F5803F41D0002B16
:100C4C0055D103F1804303F504331A6822F4803242
:100C5C001A601A6822F480221A6037E09B4B5B689A
:100C6C0013F4803FE7D0994B1B6813F4003F03D07B
:100C7C006368002B00F0AE81236813F0020F76D06E
:100C8C00924B5B6813F00C0F5FD0904B5B6803F0DA
:100C9C000C03082B54D02369002B00F08A808C4B5A
:100CAC0001221A60FFF77CFA0546884B1B6813F08B
:100CBC00020F75D1FFF774FA401B0228F5D90320F7
:100CCC008BE1824A136843F480331360636843B347
:100CDC00FFF766FA05467D4B1B6813F4003FCBD13A
:100CEC00FFF75EFA401B6428F5D9032075E1B3F5D4
:100CFC00A02F09D0754B1A6822F480321A601A683A
:100D0C0022F480221A60E1E703F18043A3F53C331F
:100D1C001A6842F480221A601A6842F480321A600F
:100D2C00D4E7FFF73DFA0546684B1B6813F4003F08
:100D3C00A2D0FFF735FA401B6428F5D903204CE10B
:100D4C00624B5B6813F4803FA5D1604B1B6813F0BA
:100D5C00020F04D02369012B01D001203DE15B4A35
:100D6C00136823F0F803616943EAC1031360236835
:100D7C0013F0080F32D0A369002B5BD0554B012226
:100D8C001A60FFF70DFA0546504B5B6A13F0020F21
:100D9C0021D1FFF705FA401B0228F5D903201CE1ED
:100DAC004A4A136823F0F803616943EAC1031360EC
:100DBC00DDE7474B00221A60FFF7F2F90546434B7B
:100DCC001B6813F0020FD2D0FFF7EAF9401B022880
:100DDC00F5D9032001E10120FFF704FF236813F08C
:100DEC00040F00F09780394BDB6913F0805F33D12F
:100DFC00364BDA6942F08052DA61DB6903F08053DA
:100E0C000193019B0125344B1B6813F4807F25D083
:100E1C00E368012B36D0002B4CD103F1804303F552
:100E2C0004331A6A22F001021A621A6A22F00402CE
:100E3C001A622CE0274B00221A60FFF7B1F9054625
:100E4C00224B5B6A13F0020FC8D0FFF7A9F9401BC5
:100E5C000228F5D90320C0E00025D4E71E4A136808
:100E6C0043F480731360FFF79BF906461A4B1B681B
:100E7C0013F4807FCCD1FFF793F9801B6428F5D94C
:100E8C000320AAE0114A136A43F001031362E368DA
:100E9C0073B3FFF785F906460C4B1B6A13F0020F70
:100EAC0037D1FFF77DF9801B41F288339842F3D993
:100EBC00032092E0052B11D0044B1A6A22F0010298
:100ECC001A621A6A22F004021A62E0E70010024069
:100EDC00000042428004424200700040414B1A6ABA
:100EEC0042F004021A621A6A42F001021A62CEE758
:100EFC00FFF756F906463B4B1B6A13F0020F08D05E
:100F0C00FFF74EF9801B41F288339842F3D9032046
:100F1C0063E0E5B9E369002B5ED0324A526802F017
:100F2C000C02082A5BD0022B17D02F4B00221A6020
:100F3C00FFF736F904462B4B1B6813F0007F47D0A4
:100F4C00FFF72EF9001B0228F5D9032045E0254AAE
:100F5C00D36923F08053D361DCE7234B00221A6062
:100F6C00FFF71EF905461F4B1B6813F0007F06D0D8
:100F7C00FFF716F9401B0228F5D903202DE0236A50
:100F8C00B3F5803F1AD017494B6823F47413226AC7
:100F9C00606A024313434B60134B01221A60FFF744
:100FAC00FFF804460F4B1B6813F0007F0ED1FFF7C0
:100FBC00F7F8001B0228F5D903200EE0094A536804
:100FCC0023F40033A1680B435360DCE7002004E0FA
:100FDC00002002E0012000E0002002B070BD0120E2
:100FEC00FBE700BF001002406000424210B487B023
:100FFC00164C94E80F000DF1180C0CE90F00238A25
:10100C00ADF80430124B5B6803F00C02082A1AD1BD
:10101C00C3F38342624412F8100C13F4803F05D1E1
:10102C000C4B03FB00F007B010BC7047084B5B681F
:10103C00C3F34043634413F8142C074BB3FBF2F394
:10104C0000FB03F0EFE70448EDE700BFA81600082B
:10105C000010024000093D0000127A00594B1B6839
:10106C0003F007038B420CD2564A136823F0070394
:10107C000B431360136803F007038B4201D001206C
:10108C00704770B5036813F0020F06D04E4A5368D0
:10109C0023F0F0038468234353600C460546036831
:1010AC0013F0010F52D04368012B23D0022B28D010
:1010BC00454A126812F0020F00F0828042494A68D9
:1010CC0022F0030213434B60FFF76AF806466B6885
:1010DC00012B1DD0022B2AD03B4B5B6813F00C0F5D
:1010EC0034D0FFF75DF8801B41F288339842F3D976
:1010FC00032064E0344A126812F4003FDED1012070
:10110C005DE0314A126812F0007FD7D1012056E021
:10111C002D4B5B6803F00C03042B17D0FFF740F842
:10112C00801B41F288339842F2D9032047E0264BCA
:10113C005B6803F00C03082B08D0FFF731F8801B19
:10114C0041F288339842F2D9032038E01D4B1B68DA
:10115C0003F00703A3420CD91A4A136823F00703C0
:10116C0023431360136803F00703A34201D001204B
:10117C0025E02B6813F0040F06D0134A536823F4B0
:10118C00E063E9680B4353602B6813F0080F07D03A
:10119C000D4A536823F46053296943EAC103536031
:1011AC00FFF724FF084B5B68C3F30313074AD35CB8
:1011BC00D840074B18600020FEF7C2FF002070BD1E
:1011CC000120FCE70020024000100240BC16000881
:1011DC0000000020014B1868704700BF0000002081
:1011EC002DE9F04188B0214B9A6942F020029A61B6
:1011FC009A6902F020020192019A9A6942F0040263
:10120C009A619A6902F004020292029A9A6942F077
:10121C0008029A619B6903F008030393039BDFF8B0
:10122C0054800022FC214046FFF7D2FC104C0022D7
:10123C0040F603412046FFF7CBFCFC230493012727
:10124C000597002606960225079504A94046FFF748
:10125C00D5FB40F60343049305970696079504A91E
:10126C002046FFF7CBFB08B0BDE8F0810010024030
:10127C00000C01400008014008B540210348FFF76D
:10128C00ADFC6420FEF792FFF7E700BF00080140B9
:10129C0008B50E480E4B03600323436000238360A4
:1012AC00C3604FF4802202614FF4A002426183615B
:1012BC000122C261036243628362C362FFF70BF8CF
:1012CC0000B908BDC7210348FFF7D6FF680000200E
:1012DC0000640040D416000800B58BB01648174BBC
:1012EC0003631C3343630023059306930122079287
:1012FC000093019302930393049308920E23099392
:10130C006946FEF765FF88B90B4B196B01220A6021
:10131C00196B4A601A6B0021D1601A6B0421916021
:10132C001B6B02221A610BB05DF804FB40F2131127
:10133C000348FFF7A1FF00BF680000202000002039
:10134C00D416000800B591B0012206924FF48033F8
:10135C000793002108910A9202220D920E934FF4EA
:10136C00E0130F9306A8FFF753FC08BB0F23019360
:10137C0002210291002303934FF48062049205939F
:10138C0001A8FFF76BFEB8B9FFF724FF0C4BA3FBCA
:10139C0000308009FFF706FB0420FFF719FB002241
:1013AC0011464FF0FF30FFF7BDFA11B05DF804FBAA
:1013BC0098210448FFF760FFA6210248FFF75CFF65
:1013CC00D34D6210D416000808B5FEF7CFFEFFF718
:1013DC00B9FFFFF705FFFFF75BFF4FF47A60FEF7ED
:1013EC00E5FEFFF779FF00210448FFF70FF800B97D
:1013FC00FEE76F210248FFF73FFF00BF68000020A7
:10140C00D416000810B50446436B5B68DB0CB3F5CF
:10141C00207F0CD0B3F5407F0ED040F202329342C5
:10142C000FD000212046FEF7F1FF78B910BD042142
:10143C000B48FFF7D3FBF4E708210948FFF7CEFB75
:10144C00EFE710210648FFF7C9FBEAE70121044842
:10145C00FFF7C4FB4FF4A5710248FFF70DFF00BF67
:10146C0000080140D416000800B583B0254B9A69DA
:10147C0042F001029A619A6902F001020092009A0C
:10148C00DA6942F08052DA61DB6903F08053019330
:10149C00019B0320FFF734FA002211466FF00B007A
:1014AC00FFF740FA002211466FF00A00FFF73AFAF4
:1014BC00002211466FF00900FFF734FA00221146A2
:1014CC006FF00400FFF72EFA002211466FF00300B4
:1014DC00FFF728FA002211466FF00100FFF722FAFD
:1014EC00002211464FF0FF30FFF71CFA064B5A68EA
:1014FC0022F0E0625A605A6842F000725A6003B0FF
:10150C005DF804FB00100240000001400268184B1B
:10151C009A4200D0704730B587B003F5D633DA69FC
:10152C0042F00072DA61DB6903F000730193019BF6
:10153C004FF4006302930024039404940D4D02A90C
:10154C002846FFF75BFA4FF4805302930223039370
:10155C000323059302A92846FFF750FA2246214699
:10156C001420FFF7DFF91420FFF710FA07B030BD95
:10157C0000640040000801407047FEE7FEE7FEE70C
:10158C00FEE770477047704708B5FEF701FEFFF79E
:10159C0030FA08BD08B50248FFF7B4F808BD00BF23
:1015AC00680000200F4B1A6842F001021A6059685B
:1015BC000D4A0A405A601A6822F0847222F4803272
:1015CC001A601A6822F480221A605A6822F4FE0209
:1015DC005A604FF41F029A60044B4FF000629A60FD
:1015EC00704700BF001002400000FFF800ED00E063
:1015FC00002103E00B4B5B58435004310A480B4B62
:10160C0042189A42F6D30A4A02E0002342F8043BFD
:10161C00084B9A42F9D3FFF7C5FF00F00FF8FFF71C
:10162C00D3FE7047EC1600080000002004000020D8
:10163C0004000020AC000020FEE7000070B500257F
:10164C000C4E0D4CA41BA410A54209D100F01AF8A5
:10165C0000250A4E0A4CA41BA410A54205D170BD4E
:10166C0056F8253098470135EEE756F8253098475F
:10167C000135F2E7E4160008E4160008E416000849
:10168C00E8160008F8B500BFF8BC08BC9E467047C9
:0C169C00F8B500BFF8BC08BC9E467047C3
:1016A80002030405060708090A0B0C0D0E0F10109B
:1016B8000102000000000000000000000102030415
:1016C8000607080900000000010203042E2E2F530C
:0C16D80072632F6D61696E2E63000000CC
:0416E40031010008C8
:0416E8000D010008E8
:0416EC0000A24A040A
:04000005080015FDDD
:00000001FF
